:020000040804EE
:100000000000082425C8060871C80608298A0508C2
:100010002F8A0508358A05083B8A0508000000007C
:10002000000000000000000000000000C9400408BB
:1000300071C8060800000000634104087341040809
:1000400071C8060871C8060871C8060871C8060894
:1000500071C8060871C8060871C8060871C8060884
:1000600071C8060871C8060871C8060871C8060874
:1000700071C8060871C8060871C8060871C8060864
:1000800071C8060871C8060871C80608F5D80608C0
:1000900005D9060801D9060811D9060871C806084D
:1000A00071C8060871C8060871C8060871C8060834
:1000B00071C8060871C8060871C8060871C8060824
:1000C00071C8060871C8060871C8060871C8060814
:1000D00071C8060871C8060871C8060871C8060804
:1000E00071C8060871C806080000000071C806083B
:1000F00071C8060871C8060871C8060871C80608E4
:1001000071C8060841C5060871C8060871C8060806
:1001100071C8060871C8060871C8060871C80608C3
:1001200071C8060871C8060871C8060871C80608B3
:1001300071C80608DB70040871C8060871C8060893
:1001400071C8060871C80608000000000000000021
:1001500071C8060871C8060871C8060871C8060883
:1001600071C8060871C8060871C8060871C8060873
:1001700071C8060871C8060871C8060800000000AA
:1001800071C8060871C8060871C8060871C8060853
:1001900071C8060871C8060871C8060871C8060843
:1001A00071C8060871C8060871C8060871C8060833
:1001B00071C8060871C8060871C8060871C8060823
:1001C00071C8060871C8060871C8060871C8060813
:1001D00071C8060871C8060871C8060871C8060803
:1001E00071C8060871C8060871C8060871C80608F3
:1001F00071C8060871C8060871C8060871C80608E3
:1002000071C8060871C8060871C8060871C80608D2
:1002100071C8060871C8060871C8060871C80608C2
:1002200071C8060871C8060871C8060871C80608B2
:1002300071C8060821C8060871C8060871C80608F2
:1002400071C8060871C8060871C8060871C8060892
:1002500071C8060871C8060871C8060871C8060882
:1002600071C8060871C8060871C8060871C8060872
:1002700071C8060871C8060871C8060871C8060862
:1002800071C8060871C8060871C806080000000099
:1002900071C8060871C8060810B5054C237833B933
:1002A000044B13B10448AFF300800123237010BD49
:1002B0000020002400000000507A0A0808B5034B13
:1002C0001BB103490348AFF3008008BD00000000E4
:1002D00004200024507A0A08154B002B08BF134B4A
:1002E0009D46A3F5803A00218B460F461348144AD9
:1002F000121A50F005F90F4B002B00D098470E4B07
:10030000002B00D098470020002104000D000D486C
:10031000002802D00C4819F033FB4FF0AFFA200050
:10032000290006F02FF919F045FD00BF0000080074
:100330000000082400000000E164040800200024FC
:100340002027022481990508000000000149024885
:1003500001F020BDE6BF09082020002410B50B4C99
:1003600008220B48214601F02FFD0A49204652F091
:100370008FF9094B18604EF021F9084B41EC170B2F
:10038000F7EEC77B17EE900A186010BD34200024EA
:10039000202000249B8E09085420002400000038EF
:1003A000F8B51D4604460F46164603F039FD2B6886
:1003B00063B92368C01AB84207D3FFF7C7FF2B6899
:1003C00001332B6003F02CFD2060F8BD012BFCD124
:1003D0002368C01AB042F8D3FFF7C0FF0023F0E74C
:1003E000034A0449044B126809680448FFF7D8BF60
:1003F0005C20002458200024602000246420002475
:1004000008B50549054833F05DFF054A64210548F4
:10041000BDE8084001F0B2BCD7888C741C200024D1
:10042000988E09082020002408B50D4801F0DAFA5A
:100430000C4B4FF47A7240F6B8301A604FF41672D3
:10044000094B1A600022094B1A6003F007FD03F004
:10045000E7FC074B18600748BDE8084033F074BF5D
:10046000002B0024582000245C200024602000245D
:10047000642000241C200024704710B504461C3062
:1004800017F0DEF9204610BD10B5044617F0D8F974
:10049000204610BD10B504466C3014F092FB04F1F8
:1004A000480014F08EFB04F1240014F08AFB20466F
:1004B00014F087FB204610BD38B504460D461C22BB
:1004C000002150F01DF82046294617F038FA204642
:1004D00038BD000038B504463421FFF7EDFF352163
:1004E00004F11C00254DFFF7E7FF432104F138001C
:1004F000FFF7E2FF632104F15400FFF7DDFF37212E
:1005000004F17000FFF7D8FF762104F18C00FFF7AB
:10051000D3FF972104F1A800FFF7CEFF7F2104F15C
:10052000C400FFF7C9FF7A2104F1E000FFF7C4FF20
:10053000042104F1FC00FFF7BFFF082104F58C70D3
:10054000FFF7BAFF262104F59A70FFF7B5FF2A4698
:1005500040F6237104F5A87013F084FF2A4640F694
:10056000227104F5E07013F07DFF2A4640F6017118
:1005700004F50C7013F076FF204638BD0000C07FF4
:1005800010B504461221FFF797FF862104F11C00E5
:10059000FFF792FF792104F13800FFF78DFF9921D1
:1005A00004F15400FFF788FF422104F17000FFF7C7
:1005B00083FF832104F18C00FFF77EFF822104F189
:1005C000A800FFF779FF332104F1C400FFF774FF9F
:1005D0000E2104F1E000FFF76FFF204610BD10B5BB
:1005E0000446A43014F0F0F904F1540014F0ECF9CE
:1005F000201D14F0E9F9204610BD10B5044600F5A1
:100600008470FFF7ECFF2046FFF7E9FF204610BD9E
:1006100010B5044600F59E7013F0FAFF204610BD99
:100620002DE9F3414FF47A73002504464FF48072AC
:10063000C561294604F59E76058404F52777C0E94F
:100640000153224B03602023C0E90535892328305C
:1006500020F8063C4FF6FF7320F8043C20F8023CDB
:100660004FF04EFFC4F8285184F838517D22C4F869
:100670002C511821C4F83051304613F023FF28467E
:1006800003F0A0FB05468D2003F09CFB80468A20EA
:1006900003F098FB009043462A462146384601F075
:1006A000D9F804F534731C22002118464FF028FFB6
:1006B00000220D2117F03FF904E0304613F0A8FFA7
:1006C00032F028F8204602B0BDE8F081089409080D
:1006D00013B506214F4800F0D7F84F4A07214F487D
:1006E00000F0E6FB36214E48FFF7E6FE84214D4838
:1006F000FFF7E2FE6A214C48FFF7DEFE2F214B4850
:10070000FFF7DAFE4A48FFF78BFF4A4A4A49484852
:1007100019F034F94948FFF7DDFE464A4849474891
:1007200019F02CF99B21474814F02DFAA1214648D5
:1007300014F029FA6721454814F025FA2721444886
:1007400014F021FA00243B4A42493E4819F016F9B8
:100750007B237C2298214048CDE9004400F0F8FA40
:100760009A2387222D213D48CDE9004400F0F0FA7C
:100770000CE0364814F025FA334814F022FA3148D8
:1007800014F01FFA31F0C6FFF6E7F8E7294A3449BA
:10079000314819F0F3F83348FFF7F2FE324800F021
:1007A000A3FE324800F0A0FE7E213148FFF784FE10
:1007B000304800F07BFB1C2200212E484FF0A0FEA9
:1007C000012219212B4817F0B4F81A4A2A4929485E
:1007D00019F0D4F81C22002128484FF091FE002285
:1007E0001E21264817F0A7F81C22002124484FF0AC
:1007F00087FE1F21224817F099F80E4A21491F4809
:1008000002B0BDE8104019F0B9B81348FFF7E7FE91
:10081000B8E700BFF8200024B42A002400210024F7
:1008200014210024302100244C21002468210024BC
:10083000842100240000002411060408F427002469
:1008400079040408682000248C200024B0200024AF
:10085000D420002495040408E4250024EC26002478
:10086000FB050408C824002470240024C4250024A7
:10087000C82500247424002489040408902400243A
:10088000AC2400247B040408014A018042607047C4
:10089000B42A0024C8097047C1F380107047C1F31F
:1008A00040107047C1F300107047C1F3C00070479B
:1008B000C1F3800070470000F7B504460E4602AD54
:1008C0000021B0F9000005F8011D03F0CFFB6068BE
:1008D0000F4B0268D76993E80600B847606806F0D6
:1008E0007F0103689B689847606801222946036876
:1008F0001B699847606803681B6A9847B4F9000051
:10090000012103F0B3FB9DF8070003B0F0BD00BF69
:10091000942A00240721FFF7CFBF000070B50546D9
:100920000C46B0F90000002103F0A0FB6868124BF0
:100930000268D66993E80600B047686821460368F4
:100940009B6898476868002103689B689847002166
:10095000000284B2686803689B689847044368682B
:10096000A4B203681B6A9847B5F90000012103F09F
:100970007DFB204670BD00BF942A002437B561F08E
:100980007F010446B0F900008DF8041000218DF8B5
:10099000052003F06BFB60680B4B0268D56993E898
:1009A0000600A8476068022201A903681B699847EE
:1009B000606803681B6A98470121B4F9000003F0DE
:1009C00055FB03B030BD00BF942A002438B504465F
:1009D00040680D460368DB6A98470121B4F90000BE
:1009E00003F0C4FA0121B4F9000003F03FFB012D2C
:1009F0004FF00001204634D1FFF75EFF40F01002B7
:100A0000D2B220460021FFF7B9FF00212046FFF7B0
:100A100053FF002100F07F022046FFF7AFFF0021C7
:100A20002046FFF749FF002100F0BF022046FFF7F4
:100A3000A5FF00212046FFF73FFF00F0D102002173
:100A4000204642F00202FFF799FF00212046FFF7FF
:100A500033FF002100F0FE022046FFF78FFF012048
:100A600038BDFFF729FF00F0EF02CAE710B50021FB
:100A70000446FFF721FF00F0D1020021204642F09A
:100A80000202BDE81040FFF779BF38B500210446E7
:100A9000FFF712FF00F0D1020021204642F00202CF
:100AA000FFF76CFF00212046FFF706FF60F07F0292
:100AB00000212046D2B2FFF761FF0A2003F0CEF9F1
:100AC00000212046FFF7F8FE40F0200200212046DA
:100AD000D2B2FFF753FF412003F0C0F901212046B5
:100AE000FFF71CFF002105462046FFF7E5FE002129
:100AF00000F07F022046FFF741FF681038BD00007C
:100B000008B52DED048B08EE901A09EE102AFFF7B8
:100B1000BCFF08EE100AB7EEE86ABBEEE88A9FED6C
:100B2000325B28EE098A85EE067BB7EEC77BDFEDE8
:100B30003C7AE8EE077A17EE900A49F0F9F9DFED12
:100B4000397A07EE100ADFED386A77EE677A87EEBA
:100B5000A67AB5EEC07AF1EE10FA3FDA88EE286A8E
:100B6000DFED327A9FED225B26EE276A9FED227B36
:100B7000B7EEC63A66EE066AA3EE057BB7EEE64A26
:100B800066EE266A9FED1E5BB7EEC77BB7EEC77AAF
:100B9000A4EE057BB7EEE64A66EE266A9FED1A5B89
:100BA00026EE266AB7EEC77BB7EEC77AA4EE457B82
:100BB000B7EEE64AB7EEC66A9FED155BB7EEC77BA8
:100BC000B7EEC77AA4EE457B9FED135BB7EEC77B0C
:100BD000B7EEC77AA6EE057BB7EEC77B17EE100A15
:100BE000BDEC048B08BD00BF88CE19EEAF60C3BE5C
:100BF000F163CC5D4BC80140000000E0A3406EC033
:100C0000BB82C87D062F653F93C266C7E03DD43ED8
:100C1000CE563151E2425E3E3EFAE46127F3E43DB6
:100C2000178393373211803B7F059BB50000C84284
:100C3000034B044A1A6001221A715A71704700BFAF
:100C4000942A002440420F007047D0F80431013349
:100C5000C0F80431704738B50446043013F00EFF75
:100C6000054604F1540013F009FF237840EA4500DB
:100C7000C4F8FC00E3B9D4F8F830032B06D140B92E
:100C8000D4F800310133C4F8003102E023B903285D
:100C9000F6D0C4F8F80038BD022B05D10128F8D1F0
:100CA000D4F80031013BEEE7012BF2D10228F6E740
:100CB000012BEED1D4F8F83080EA0302032AE8D001
:100CC0009842E6D083EA6003D4F8002113F00103D0
:100CD00008BF4FF0FF33D31AD5E70B6803604B68AA
:100CE00043608B688360704710B4D0E901340168B9
:100CF0006210E4075DF8044B01EB020044BF8A5820
:100D0000D3581847C3680BB19B6818477047D0F891
:100D1000FC007047D0F800017047D0F8040170471C
:100D200010B586B00446684680E80C0006A800E9C5
:100D30000C00064BE360034643F80C1D93E80700E4
:100D400084E80700204606B010BD00BFA08E090849
:100D50002DE9F0470446061D8EB0154604F15407F0
:100D6000304699469DF85CA013F066FE2946384649
:100D700013F062FE04F1A4084946404613F05CFEFD
:100D8000002384F800A03046C4F80031C4F80431D0
:100D9000169BC4F8F43013F071FE0546384613F084
:100DA0006DFE002340EA45003E4D214601936B460F
:100DB0000095C4E93E000CCB0AA8FFF7B1FF0AA9D1
:100DC000304613F063FE0AA8FFF79CFF002302954C
:100DD0002146039302AB0AA80CCBFFF7A1FF0AA997
:100DE000304613F06FFE0AA8FFF78CFFBAF1010F2F
:100DF0001FD10023049521460AA8059304AB0CCB10
:100E0000FFF78EFF0AA9384613F040FE0AA8FFF745
:100E100079FF002306952146079306AB0AA80CCB61
:100E2000FFF77EFF0AA9384613F04CFE0AA8FFF729
:100E300069FFB9F1FF3F10D01B4B21460AA8089368
:100E40000023099308AB0CCBFFF76AFF0AA94046C1
:100E500013F01CFE0AA8FFF755FF20460EB0BDE8B0
:100E6000F0870AA8FFF74EFF404613F0ADFD384665
:100E700013F0AAFD304613F0A7FD31F04BFC0AA891
:100E8000FFF740FFF0E70AA8FFF73CFFECE70AA8EE
:100E9000FFF738FFE8E70AA8FFF734FFE4E7E3E7E6
:100EA000E5E7E7E7570C04084B0C0408704700001F
:100EB000C0E90112044AC260002210B50274012286
:100EC000024C4274046010BD00093D006666064095
:100ED00010B504460021007903F004F820790021C0
:100EE00003F07EF8A0680368BDE810401B6B18474C
:100EF00070B5002104460079042603F071F8012042
:100F000002F0AEFFA0680368DD6904F10C0393E80A
:100F10000600A8470025A06800212D0203689B68F1
:100F20009847013E45EA0005F5D1A06803681B6AB1
:100F300098472079012103F053F8284670BD10B579
:100F400004460121007902F0CDFF0121207903F050
:100F500047F8A0680368DB6A98472046FFF7C8FF98
:100F60006FF07F43984204D12046FFF7B1FF002085
:100F700010BD0120FCE7000043EC152BDDE9000368
:100F8000002282421EDA1946183313ED047BB4EEB8
:100F9000C57BF1EE10FA13DD086898B1B7EE006B6F
:100FA00000239FED0B7B98420EDD0A6902EBC30222
:100FB000013392ED004BA4EE067B26EE056BF2E7C3
:100FC0000132DEE79FED047B51EC170B704700BF49
:100FD0000000000000000000000000000000F87F9A
:100FE00010B543EC132B2DED028B0C4682B061B390
:100FF0001D4B012918BF002301930323009353ECD9
:10100000132BFFF7B9FF41EC180BC4B9B5EEC03B89
:10101000F1EE10FA13DD9FED0E7B33EE473B9FEDB3
:101020000E7B23EE033B23EE077B51EC170B48F0BE
:10103000F3F99FED0B7B41EC160BA6EE078B51EC01
:10104000180B02B0BDEC028B10BD084BD4E700BFFB
:10105000F5B9DA8AFDBD5F404175DFB1E0051FBF1C
:10106000B253628D695CBE3F188F0908608F090812
:1010700037B514461D4669B1074B01290CBF194607
:10108000002104232246019100932B46FFF774FFB1
:1010900003B030BD0149F4E7E09009084091090828
:1010A00038B52DED048B0D460446FFF721FF4107AF
:1010B00041D1830C00284FEA101094ED007AB8BF9C
:1010C0006FEA83332946B7EEC77AB8BF6FEA933326
:1010D000020508EE103AC0F30B03204648BF6FEA42
:1010E0000353BAEECF8A48BF6FEA1353B7EEC88AEC
:1010F00009EE103ABAEECE9AB7EEC99A39EE477BAE
:1011000053EC172BFFF76CFF38EE498B9FED0C7BF0
:1011100041EC160B29462046A8EE076B53EC162B24
:10112000FFF7A6FF41EC170BF7EEC77B17EE900A0F
:10113000BDEC048B38BDDFED047AF7E7AFF3008038
:10114000000000C02022A53F0000C07F064B074AD8
:101150001A6007225A60064A9A60064ADA6000223C
:101160001A7401225A7470479C2A0024666606404D
:10117000B42A002400093D00162908B508DC012A1C
:1011800006D802F0010289B200F0ECF9012008BD96
:101190000020FCE738B505460C4600F006FA222888
:1011A00006D1A4F10C030B2B0BD94FF0FF3038BD47
:1011B000284600F0FAF92328F7D1082CF5D8032C9B
:1011C000F3D0A1B2284600F0A7F9F0E7C1F3072257
:1011D0000023C9B200F0D2B907B501A900F0B2F9F5
:1011E000019803B05DF804FB10B5044600F0DDF98A
:1011F00022287DD100222046114600F0C8F9204661
:101200000022012100F0C3F920460022022100F053
:10121000BEF920460022032100F0B9F92046002241
:10122000072100F0B4F920460022062100F0AFF9B2
:1012300020460022052100F0AAF9204600220421C0
:1012400000F0A5F920460022082100F0A0F9204670
:101250000022092100F09BF9204600220A2100F01B
:1012600096F9204600220B2100F091F92046012238
:10127000172100F08CF920460122162100F087F991
:1012800020460122152100F082F920460122142176
:1012900000F07DF920460122132100F078F9204664
:1012A0000122122100F073F920460122112100F0E1
:1012B0006EF920460122102100F069F92046012232
:1012C0000F2100F064F9204601220E2100F05FF9A1
:1012D000204601220D2100F05AF920460C2101225E
:1012E00000F055F920460021BDE81040FFF76EBF21
:1012F00020460122082100F04AF92046012205215A
:1013000000F045F920460122042100F040F9204672
:101310000122022100F03BF901222046114600F093
:1013200036F920460122002100F031F92046012241
:10133000072100F02CF9204601220621BDE81040CB
:1013400000F025B938B5054600F02DF9284600F023
:10135000CFF8044610B12846FFF746FF204638BDB7
:10136000014800F0C1B800BFB02A002470B51C4687
:101370000E4615460146013C0B4800F0D5FA3146B1
:101380002544094E084800F0E1FAAC4205D014F8B3
:10139000011F304600F0DAFAF7E7034800F0CAFA16
:1013A000B0FA80F0400970BD002B002407B502ABF5
:1013B00003F8012D0122FFF7D9FF03B05DF804FB0C
:1013C0002DE9F74F1746009382468B46BDF83080D3
:1013D000002502F025FD202F3B468146A8BF202393
:1013E0002C46234E0193BD4230D25146304600F088
:1013F0009BFA5946304600F0A9FA304600F09AFAB6
:101400005146304600F090FA7A1B51463046202A69
:10141000A8BF2022D2B200F091FA304600F0A5FA1F
:1014200080B1B8F1000F07D1304600F0A8FA009B58
:101430001855013464B2F0E702F0F2FCA0EB0900A9
:101440004045F1D3019B1D44EDB2CCE7B8F1000F4C
:1014500009D002F0E5FCA0EB0900404503D3BC42F3
:10146000B8BF4FF0FF34204603B0BDE8F08F00BF97
:10147000002B002407B5009313460122FFF7A0FFBD
:1014800003B05DF804FB37B515461C460DF10702A5
:10149000BDF81830FFF7EEFF01229DF80730AA4093
:1014A0001A40227003B030BDF7B51E460D4B1746EB
:1014B0000DF107021B8804460D46FFF7DBFF0122F2
:1014C0009DF80730BA4052B24EB11A43D2B2294603
:1014D00020468DF80720FFF769FF03B0F0BD23EA2F
:1014E0000202F4E704000024222303707047000086
:1014F00007B5084A0346002100781288013300929C
:101500000322FFF75DFFC31E5842584103B05DF848
:1015100004FB00BF04000024094B01F0070213B5CF
:101520001B880446C1F3C70100780093631CFFF7D2
:10153000AAFF6078003018BF012002B010BD00BFC4
:1015400004000024064B1B8807B503220078009393
:101550000B468021FFF734FF03B05DF804FB00BFAA
:101560000400002410B4CC081346007801F00702F0
:101570000434E1B25DF8044BFFF796BF417084215B
:1015800082700322C370431C0078FFF7EFBE10B4D3
:10159000CC081346007801F007020C34E1B25DF884
:1015A000044BFFF781BF017070470078704710B59A
:1015B000C36886B001228DF80F100DF10F01186875
:1015C00003680092DC680DF11703A0479DF817002F
:1015D00006B010BDF8B5427A044603680E46CFB295
:1015E0009B680D0A62B939469847236860F307067D
:1015F00029469B682046984760F30F26B0B2F8BD95
:1016000029469847236860F30F2639469B68204691
:10161000984760F30706F1E7C36813B518680368D5
:101620000092DC680B46A04702B010BD70477047BF
:101630007047C36810B5044653B1186840B10368D9
:101640005B6898470421E06818F024FC0023E360FD
:1016500010BD10B50446182118F01CFC204610BD22
:10166000436873B599426D4604460E4685E8060008
:1016700004D1BDF8042003899A420FD0E368082101
:101680009DF80420186813F0E6FCE36831461868FA
:1016900013F0FFFC0098AB886060238102B070BD3E
:1016A00073B5C568044625B9042018F0BFFBE06097
:1016B0000560E3681B6883B94FF0FF36742018F0AB
:1016C000B5FBB4F91430B4F910200546B4F9121082
:1016D000009613F0BFFDE3681D6002B070BD742179
:1016E000284618F0D7FB31F015F8000038B50A206D
:1016F00002F07CFB0546082002F078FB0446092036
:1017000002F074FB094B0A4A0121988218461A60BC
:10171000002259725A601A72DA601D825C82054A90
:101720000549BDE8384018F029B900BFB42A0024A3
:10173000B092090800000024311604080020704708
:101740000268322313B50093946A40F21342A04713
:1017500002B010BD13B5046800931346A46A40F2AA
:101760001342A04702B010BD13B5322304680093A2
:10177000A46AA04702B010BD006903681B6918473E
:10178000006903689B691847006903685B6918472B
:1017900000690368DB6818470120704770B504468C
:1017A0000D4616460499C5622286026A002A08BFC1
:1017B0001A46436A002B18BF1946026241628069CB
:1017C000002807DB0121C0B202F08CFB0021207E43
:1017D00002F006FCE069002807DB0121C0B202F03C
:1017E00081FB0121207F02F0FBFB002320693246B0
:1017F000294684F828300368BDE870401B6A184702
:1018000010B50446006903685B6A9847A069002820
:1018100007DB0021C0B202F0E3FB0021207E02F0D2
:1018200061FBE069002809DB0021C0B202F0D8FBAF
:10183000207F0021BDE8104002F054BB10BD0346DC
:1018400090F8280018B1186903681B68184701222E
:101850005A60704770B500254FF47A768361049B17
:10186000456280F82850C0E90156034EC0E90412D1
:101870000660C0E9073570BDEC92090810B5044652
:101880008069002807DBC0B2012102F0A9FB206AB1
:1018900008B102F0E5FA012384F8283010BD10B534
:1018A000044600690368DB689847A369002B07DBDF
:1018B000606A08B102F0D4FA0021207E02F090FBA9
:1018C000002384F8283010BDC069002803DB002104
:1018D000C0B202F085BB7047C069002803DB01215C
:1018E000C0B202F07DBB70470A4B00224FF47A7100
:1018F00001205A6283F82820C3E9012106491960B2
:10190000064919611521C3E905011421C3E907122C
:10191000704700BFCC2A0024EC9209081836002436
:101920000368C9B21B68184749000023C161C0F8A9
:101930002C327047036801211B6B184710B40368F1
:101940009C6B0123A4465DF8044B6047D0F82C3211
:10195000B3F5807F1FBF5A1CC0F82C22C01880F836
:101960002C1114BF012000207047D0F828017047C7
:101970007047C0F830127047C0F834127047D0F882
:101980002831A3B1D0F828318BB1D0F82431D0F868
:1019900024210344013293F82030D2B2C0F824212C
:1019A000D0F82821013AC0F82821184670474FF096
:1019B000FF307047D0F828312BB1D0F824311844CB
:1019C00090F8200070474FF0FF307047044B10B57F
:1019D0000446036000F50E7018F0BCFE204610BDF2
:1019E0004093090838B5036804465B6A98474FF48A
:1019F000827018F01BFAB4F91A20B4F918100546D1
:101A000012F074FF656138BD4FF48271284618F0FA
:101A100041FA30F07FFE38B5D0F82C321446054636
:101A200000F596701A441844B2F5807F88BFC3F55C
:101A3000807422464EF066FCD5F82C3220462344B2
:101A4000C5F82C3238BD38B5044640690D4608B19A
:101A500012F069FE206920B12946BDE8384012F035
:101A60009BBF38BD07B581F0010100F5967200916A
:101A7000D0F82C32C169406912F068FE002814BF0A
:101A80000220002003B05DF804FB38B5044640692D
:101A900010B10368DB68984723696BB104F50E75D4
:101AA000284618F035FE284618F0DEFE2069A421ED
:101AB000BDE8384018F0EEB938BD70B5C2B083F05B
:101AC00001030446154602AE0093490013464069DF
:101AD000324612F05CFEC8B9A84218D0D4F82831BA
:101AE000B3F5807F10D0D4F82031325C234483F8E2
:101AF0002020D4F820310133DBB2C4F82031D4F8EF
:101B000028310133C4F828310130E5E700252846A3
:101B100042B070BD10B4D0E9013401686210E4072E
:101B20005DF8044B01EB020044BF8A58D3581847B4
:101B300030B50446BDB00025206912F036FF0328F9
:101B4000FAD8DFE800F04C021414D4F8343203B1B0
:101B50009847D4F82C2232B104F59671206912F01E
:101B600028FFC4F82C52206912F02BFFE4E7C4F8D8
:101B70002051F022C4F824516946C4F82851206944
:101B800012F015FF002282421DDAD4F82831B3F595
:101B9000807F18D0D4F82831B3F5807F11D0D4F8E5
:101BA00020311DF80210234483F82010D4F820318E
:101BB0000133DBB2C4F82031D4F828310133C4F842
:101BC00028310132DFE7D4F82831002BB4DDD4F816
:101BD0003032002BB0D0D4F828019847ACE702F09F
:101BE0004FF9A9E77FB5036804460E465B6A98473C
:101BF000A42018F01BF9B4F91A20B4F918100546FE
:101C000012F0B0FE71002846256112F0C7FE0D4BA0
:101C1000694604F50E7003930B4B00940193002367
:101C2000029318F007FD6846FFF76CF804B070BD2A
:101C3000A421284618F02EF930F06CFD6846FFF715
:101C400061F8F9E720930908311B04082DE9F743EF
:101C50000F4699460021144B00F1400504460360ED
:101C600090460161284618F0F5FB04F15406304611
:101C700018F090FB0A9B42463946204600934B469B
:101C800018F0CCFC0CE0304618F0C2FB284618F0E7
:101C900026FC201DFFF736F830F03CFDF6E7F8E7AC
:101CA000204603B0BDE8F0834CBF090837B54FF4B8
:101CB0007A73002504460183428329464FF48072DB
:101CC000C0E901530F4BC0E90455036020304EF0CA
:101CD00017FC0D4BC4F820514FF40062C4F8245196
:101CE0001821009304F50E70C4F828512B46C4F84F
:101CF0002C52C4F83052C4F83452FFF7A7FF2046E4
:101D000003B030BD409309082C93090870B50B202F
:101D1000154E02F06BF804460C20144D02F066F8E4
:101D200021460246124C3046FFF7C0FF3046114EA6
:101D30002A46214617F022FE162217213046FFF7C9
:101D4000B5FF30460C4E2A46214617F017FE7B227F
:101D50007C213046FFF7AAFF2A4621463046BDE8DF
:101D6000704017F00BBE00BF002B002400000024C1
:101D7000CD190408F42D0024E830002410B5002407
:101D800001704260846000240473014C046110BD42
:101D9000002B002470B5044600690D4603682178C5
:101DA000DB6A98474DB1266928464FF049F9294624
:101DB0003368024630465B689847206903685B6B6E
:101DC00098470023237370BDF8B50F4604460021E1
:101DD0001546384600264EF093FB20696A1E21788E
:101DE0000368D2B29D6B0123A847206903685B6931
:101DF00098470546206903681B69984750B12069D8
:101E000003685B699847731CC0B218B1F6B2B85545
:101E10001E46EFE7E8B202280DD003DC012807D008
:101E2000607BF8BDFE2808D0FF28F9D1032300E02D
:101E300000236373F4E70123FBE70223F9E70020A3
:101E400070470020704730B5A1F11004002500F064
:101E50000F02CD7302390009D3B2092ACCBF373340
:101E600030330B748C42F2D130BD2DE9FF47002492
:101E7000061D05468A4690469946009423464FF033
:101E8000FF32B1213046CDE9014413F004F829684E
:101E90002846DDE90C23CDE9002342464F694B4635
:101EA0005146B847009423464FF0FF32C1213046D7
:101EB000CDE9014412F0EFFF204604B0BDE8F08701
:101EC0002DE9D04F9B460368924604469B6ADDE9A4
:101ED0000889984702460B465046594631F0CAF8E1
:101EE000134302D00020BDE8D08F236820469B6AB0
:101EF000984702460B464046494631F0BBF813432B
:101F0000F0D11AEB0806236820464BEB09079B6BC0
:101F10009847B94208BFB0422CBF01200020E2E739
:101F200001682DE9F04114461D46096B06468847B5
:101F300002460B462046294631F09CF8134302D056
:101F40000020BDE8F081DDE906233046A71845EB07
:101F5000030817F1FF323368196B48F1FF338847E4
:101F600002460B463846414631F084F81343E7D128
:101F7000336830469B6B9847414508BFB8422CBF39
:101F800001200020DDE72DE9D04F9B4603689246F3
:101F900004465B6ADDE90889984702460B465046CD
:101FA000594631F067F8134302D00020BDE8D08FC6
:101FB000236820465B6A984702460B4640464946DE
:101FC00031F058F81343F0D11AEB08062368204685
:101FD0004BEB09079B6B9847B94208BFB0422CBF37
:101FE00001200020E2E70000074B10B50446036023
:101FF000806A08B116F0E4F9236913B19B68201DCB
:102000009847204610BD00BF30AC090810B5044603
:10201000FFF7EAFF4FF48271204617F03BFF20469E
:1020200010BDC220704700B5C5B01622172103A805
:1020300012F05CFC4FF4A17302AA1021ADF8083035
:10204000002303A80093022312F080FB03A8FFF7EC
:10205000CBFF45B05DF804FB03A8FFF7C5FF30F0E8
:1020600059FB000037B51F481F4D0378BFF35B8F46
:1020700013F0010F0DD117F099FC50B11A2017F091
:10208000D5FE1A2200214EF03BFA2860154817F0C1
:10209000AFFC164819F026FF1A22002329681348BE
:1020A000CDE9002300230022FFF7DFFE0446286865
:1020B0000378B52B0CD10E4B012218600D4B1A7012
:1020C0000A4819F0F3FDB4FA84F0400903B030BDBA
:1020D0001A2117F0DFFEF3E7024817F08FFE30F009
:1020E00019FB00BF003400241436002408340024F7
:1020F0000800002410360024014B1868704700BF08
:10210000080000240D4B187830B10D4B1B689A88DD
:1021100040F202439A420FD80A4B9B6D03F460438E
:10212000B3F5004F07D0064B1B685878172894BFAB
:102130000020012070470020704700BF10360024A7
:1021400008000024004402581D4B01211D4AA6200E
:1021500070B51A6001F00AFF0121A62001F086FF88
:10216000FFF761FF184B43F2D2021A60FFF77AFFC4
:10217000164B1B7833B1164B1B689A8840F2094303
:102180009A421BD8134B9B6D03F46043B3F5004F89
:1021900014D001F045FE104D044601F053FE0646F2
:1021A00001F050FE801BA842FAD901F039FE001B55
:1021B000642803D0BDE870402DF002B970BD00BFA7
:1021C000DC33002400400058004000521036002448
:1021D00008000024004402589F86010010B5044600
:1021E00020F0ECFF2146FFF72EFE20F0EDFF04F17A
:1021F0001001FFF728FE20F0EDFF04F12001FFF7AA
:1022000022FE302010BD000008B54DF659720021A5
:10221000074828F0F8F8BFF34F8F0649064BCA6805
:1022200002F4E0621343CB60BFF34F8F00BFFDE7C2
:10223000DC33002400ED00E00400FA0510B50023B3
:1022400086B00D4A66210D4CCDE903325A233C225B
:102250002046CDE901313D233B210093572319F05E
:102260008FFC074B074A20460749236006B0BDE8AC
:10227000104017F083BB00BF005A620208340024EC
:102280009893090800000024C922040838B5074BB8
:102290000546044645F8BC3B19F008FD284618F0F1
:1022A000B7F8201D12F036FE204638BD6CCB090869
:1022B00010B50446FFF7EAFF4FF40271204617F00D
:1022C000E9FD204610BD0000034B10B50446036035
:1022D000FFF7DCFF204610BD9893090810B50446AF
:1022E000FFF7F2FF4FF40271204617F0D3FD2046AE
:1022F00010BDD0E90030184710B5C0E90012024CFB
:102300000022C460826010BDE893090870B590F89F
:10231000383105461446F3B90368DB69984704F47D
:10232000706304F00F02B3F5407F04F0F0030CBFBC
:1023300007210821302B0CBF02230123012A08D0DA
:10234000901E42424241A869BDE87040006813F007
:10235000E4B80222F7E770BD10B590F838310446B2
:102360002BB9A369186813F019F90028F9D010BD2A
:1023700038B590F838510446A5B983695BB118683F
:1023800048B10368DB689847A36904211D60A06910
:1023900017F080FDA5610023C4F82831C4F82C3162
:1023A000C4F8303138BD13B590F8383104466BBBF2
:1023B000A369186813F0C8F840B316F003FEA369C8
:1023C00001220DF10701186803685B699847D4F88A
:1023D0003031B3F5807F16D0D4F83031B3F5807F3B
:1023E00011D0D4F828319DF80720234483F8282001
:1023F000D4F828310133DBB2C4F82831D4F83031B5
:102400000133C4F8303116F0F3FDD1E702B010BD4E
:1024100010B4D0E9013401686210E4075DF8044BA0
:1024200001EB020044BF8A58D358184708B590F80A
:1024300038313BB1012001F011FD0648BDE80840EC
:1024400001F01ABB82691AB11368003318BF012367
:10245000184608BD9C4000247FB590F838310446EA
:102460000E46002B36D1856925B9042017F0DEFC15
:10247000A0610560A369186828BB8C2017F0D6FC02
:102480003346B4F922200546B4F9201013F01AFBA4
:10249000A3691D60B4F92420531C06D0A069032150
:1024A000B4F92630006813F01BFBA369186888B1E3
:1024B0000E4B00226946009403930D4B0292019348
:1024C00013F089F803E0314613F014F8E2E76846A8
:1024D000FEF718FC04B070BD8C21284617F0DAFC1A
:1024E00030F018F96846FEF70DFCF9E7F493090897
:1024F000A723040870B504460D4601F0BDFA30B1BB
:102500002368294620461B6CBDE87040184770BD03
:10251000A0F59860EEE7000013B590F83831044656
:102520008DF807102BB1C9B20B48FFF7E3FF02B0DB
:1025300010BDA369186813F031F80028F9D0A36919
:1025400001220DF10701186803681B6998470130E3
:1025500018BF0120EBE700BF9C4000242DE9F041AB
:1025600007468846164601F087FA80B10024A64245
:102570000ED9351B08EB04013846B5F5007F28BF9E
:102580004FF400752A462C4400F018FFEFE704468C
:102590002046BDE8F081A0F59860DFE770B590F8BF
:1025A000383105460E4614462BB10F48FFF7D6FFCB
:1025B0000446204670BDAB69186812F0EFFF002892
:1025C000F9D0AB6901211868D0F8883088301B6BCE
:1025D0009847AB6922463146186803681B699847DB
:1025E000013008BF0024E4E79C40002430B50446D5
:1025F000C3B001F099F90546D4F8D835C3F5807316
:10260000984203DDD4F8D855C5F580752A4601AB4C
:1026100002A9204600F0C9FF019902AB00226D1A01
:102620001D44D4F8D835B3F5807F19D08A4217D02D
:10263000D4F8D835B3F5807F10D0D4F8D035A85C65
:10264000234483F8D004D4F8D0350133DBB2C4F886
:10265000D035D4F8D8350133C4F8D8350132E0E7A5
:1026600043B030BD38B5044600F026FB2046FFF7E6
:10267000BDFFD4F8D855204600F026FB284638BDCB
:10268000A0F59860EEE7000010B590F838310446E8
:102690002BB10648FFF7E6FF0446204610BD16F0B2
:1026A00091FCD4F8304116F0A3FCF6E79C400024DE
:1026B00038B5044600F000FB2046FFF797FFD4F83A
:1026C000D8354BB1D4F8D435234493F8D0542046B0
:1026D00000F0FAFA284638BD4FF0FF35F7E7A0F5CD
:1026E0009860E5E710B590F8383104462BB10B48F7
:1026F000FFF7DEFF0446204610BD16F063FCD4F859
:1027000030313BB1D4F82C01044494F8284016F041
:102710006FFCF0E74FF0FF34F9E700BF9C40002466
:1027200038B5044600F0C8FA2046FFF75FFFD4F83A
:10273000D835A3B1D4F8D435234493F8D054D4F881
:10274000D4350133DBB2C4F8D435D4F8D835013BE5
:10275000C4F8D835204600F0B7FA284638BD4FF007
:10276000FF35F7E7A0F59860DAE7000010B590F8BC
:10277000383104462BB11148FFF7D2FF04462046FA
:1027800010BD16F01FFCD4F830319BB1D4F82C31B9
:10279000234493F82800D4F82C310133DBB2C4F879
:1027A0002C31D4F83031013BC4F83031044616F0F6
:1027B0001FFCE4E74FF0FF34F9E700BF9C40002422
:1027C00008B54FF4807200214DF09AFE0022C0F847
:1027D0000021C0F80421C0F8082108BD2DE9F84304
:1027E00000242D4D4FF47A782C4F202605F1280037
:1027F0002F60EC61C5E90148C5E90564FFF7E0FF1A
:1028000001230E2085F8383101F0F0FA244D81467D
:102810000D2001F0EBFAA5F820904FF6FF796884BF
:1028200005F128002F60EC61A5F82490A5F826900A
:10283000C5E90148C5E90564FFF7C2FF85F83841DD
:102840000F23184D2B84562305F128002F606B842D
:102850005823EC61AB845923C5E90148EB84C5E9F1
:102860000564FFF7ADFF85F8384198230E4D2B84A2
:10287000992305F128002F60EC616B84A5F8249062
:10288000A5F82690C5E90148C5E90564FFF798FF5A
:1028900085F83841BDE8F883CC390024089409084C
:1028A0001836002454370024903800240020704744
:1028B0007047704710B5D0F88C452CB1236820467E
:1028C0005B689847A468F8E710BD38B50D46D0F8A6
:1028D0008C4534B12368204629469B689847A468F4
:1028E000F7E738BD00487047C8940908054B10B594
:1028F0000446036014F009FC204614F01FFC204637
:1029000010BD00BF4894090810B50446FFF7EEFF5C
:102910004FF4B261204617F0BDFA204610BDF7B55E
:10292000002305460E46D0F88C45A4B123683146F5
:102930000DF103022046DF6801ABB8479DF8031094
:102940000346042905D0019A284613F043FE03B03C
:10295000F0BDA468E9E7019A9DF80310F4E770B5AB
:1029600005460E4622B10021BDE8704013F034BC8C
:10297000D0F88C455CB123680022314620461B69A3
:10298000984710B101212846EEE7A468F2E72146F6
:10299000F9E770B50E460546D0F88C4500213CB1EC
:1029A0002368314620465B699847A4680146F6E7EC
:1029B0002846BDE8704013F009BDF8B505460E463F
:1029C0001746D0F88C453CB1236820463A4631463C
:1029D0009B699847A468F6E728460121BDE8F840BE
:1029E00013F052BD70B5002186B0044613F0EAFF23
:1029F00000234FF48975A188EF26ADF806302389AE
:102A0000ADF8045002258DF810301B0AE2888DF8CD
:102A1000113040F201238DF80750ADF8123040F22A
:102A200003138DF809500125ADF8143004F10A03A1
:102A30008DF8086005AE8DF80A501C468DF80C1014
:102A400001AD090A8DF80E20120A8DF80B008DF8E1
:102A50000D108DF80F202A46083303CAB24243F8FE
:102A6000080C43F8041C1546F5D1128820461A803C
:102A700006B070BDF8B5002406460D462746304620
:102A80004EF0DEFAA04207D9335D05F8143005EBAD
:102A9000440301345F70F2E7400000F0FE00F8BD2F
:102AA00038B50446D0F88C5535B12B6828461B6ADA
:102AB000984710B9AD68F7E7284640F2023304F2B0
:102AC0004A51A4F84835FFF7D5FF94F84835184423
:102AD00084F8480504F5A96038BD000040F20233CF
:102AE00000F20A5110B50446A0F808350548FFF772
:102AF000C1FF94F80835184484F8080504F5A1606E
:102B000010BD00BF3494090840F2023310B50446EA
:102B1000A0F8C83400F2CA40FFF760FB94F8C8344C
:102B2000184484F8C80404F5996010BD2DE9FF41EC
:102B300000231D4A044600F54E788DF80A30092519
:102B400090F888350192FA228DF8083001238DF82B
:102B50000C208DF80930C0238DF80B3001AB03CB6E
:102B6000C4F83803C8F8041088F80820D4F88C6535
:102B70008EB13368002130461B689847478805F5B9
:102B80004E7300F10901093FE0183A463D444DF00B
:102B9000B9FBB668ECE784F83A5340462D1284F846
:102BA0003B5304B0BDE8F0810902FFFF73B5044652
:102BB0000D4616462AF00EFE4FF4807301462A4653
:102BC00020460093334613F0C5FE024B2046236097
:102BD00002B070BD4894090810B5D0F88C35044691
:102BE000A3B9C0F88C1594F8883508464A790B715A
:102BF00094F88835134484F888350B685B6A9847E5
:102C0000238918442081012010BD13469A68002AA8
:102C1000FBD19960E7E71FB5044613F095FE014626
:102C2000684613F01FF84021684613F097F8D4F86F
:102C30008C4534B1236869462046DB699847A4680F
:102C4000F7E7684613F015F804B010BD684613F0B6
:102C500010F82FF05FFD10B50446FFF7DCFF2046AB
:102C6000BDE8104013F0E0BD0F4808B50378BFF38E
:102C70005B8FDB0711D416F099FE70B140F25B2236
:102C800042F241310948FFF791FF074816F0B0FEC4
:102C9000074A0849054816F071FE044808BD024875
:102CA00017F0ACF82FF036FD083B00240C3B002455
:102CB00000000024ED28040810B5FFF7D5FF0368D5
:102CC000BDE810405B6F184710B5FFF7CDFF0368F4
:102CD000BDE810409B6F184710B5FFF7C5FF0368AC
:102CE000BDE81040DB6F184713F078B913F036B920
:102CF00013F064B9704770477047436A93F87800DF
:102D00007047D0F8A404704701207047004870470E
:102D10003C9609082DE9F04794B004460F464B2233
:102D2000002101A84DF0ECFB2679D4F8A434751CE1
:102D300094F80E90002B94F80C80EDB294F80DE00E
:102D400014BF05200020002F40F0938040F209239B
:102D500009218DF81D0042F20540ADF804304FF412
:102D600081738DF815100121ADF808308023ADF87E
:102D70001E0010208DF80B3032234FF0040A242758
:102D80008DF80C3008234FF0030C4B228DF80D30DA
:102D90000B238DF819101D348DF80E3040F20223EC
:102DA0008DF81C10ADF8103002238DF8210005209D
:102DB0008DF822108DF825108DF8271006218DF83A
:102DC00006208DF80F608DF812308DF817608DF8A1
:102DD0001A308DF81B308DF823008DF826C08DF841
:102DE0002A308DF82B108DF82C008DF816A08DF858
:102DF00024708DF828A08DF829708DF82D708DF82D
:102E00002E1007218DF82F6041F202068DF8311047
:102E10008DF8411040F207518DF83050ADF8366012
:102E200040F209468DF83A5040F602258DF83200FE
:102E30008DF842002046ADF848100DEB0A018DF8E0
:102E400033908DF834C0ADF83860ADF83C508DF853
:102E500043808DF844308DF846308DF84AE08DF887
:102E60004B308DF84D304DF04DFA204614B0BDE892
:102E7000F0870020FAE700000A4B10B50446036013
:102E8000FFF7F2FE14F041F904F5247013F000F896
:102E900004F17C0012F0FCFF04F1700012F0F8FF66
:102EA000204610BDFC95090810B50446FFF7E4FF65
:102EB0004FF49561204616F0EDFF204610BDFFF758
:102EC0000BBF0000034B10B50446036012F050FE28
:102ED000204610BD1095090810B50446FFF7F2FF13
:102EE0002821204616F0D6FF204610BD034B10B512
:102EF0000446036012F03CFE204610BDE094090831
:102F000010B50446FFF7F2FF3421204616F0C2FF49
:102F1000204610BD034B10B50446036012F028FE96
:102F2000204610BDF894090810B50446FFF7F2FFDB
:102F30003821204616F0AEFF204610BD38B51E4B96
:102F40000D4604464FF400721968C0F80F109988B6
:102F50009B79A0F8131002214375284612F0F4FE65
:102F60004FF4007220730221284612F0F2FE4FF453
:102F7000007260730321284612F0E6FEA073284613
:102F800012F078FE20B9AF220C490D4815F02EFF43
:102F900004F185020023C4F8882204F2992284F8FF
:102FA000783084F88430C4F88C3284F89832C4F8CD
:102FB0009C24C4F8A03438BD2C950908D89509087C
:102FC000E39509082DE9F34104460E461546FFF73F
:102FD00083FEF28823799A4237D1002D35D1777854
:102FE000012F2ED1F378202B27D13289072A24D123
:102FF00004F10F0804F11605404629464DF050F93A
:10300000D0B1D4F81630C4F80F30638B207CE17B4C
:10301000A4F8133001EB0021E57C607C237F01EBF9
:1030200000410095A07C2568637501EB0061237D5C
:103030002046627D6D6BA8473D46F378212B08BF83
:103040000125284602B0BDE8F0810025F9E710B55A
:103050000446FFF741FEFFF707FE217B13F0FAFE5F
:1030600004F1850304F17C00C4F888320023C4F81D
:103070008C3284F8843012F0C0FE94F884302BB97E
:1030800023682046DB6BBDE81040184710BD0000E8
:1030900070B50446FFF720FED4F8A0542DB140F2DD
:1030A000DD120F490F4815F0A1FE04F29923C4F870
:1030B0009C34FFF7D9FD617B13F028FE84F8985209
:1030C000C4F8A00404F5247012F097FE94F8983226
:1030D0002BB9236820469B6BBDE87040184770BD34
:1030E000D89509083895090810B4D0E90134016869
:1030F0006210E4075DF8044B01EB020044BF8A58FC
:10310000D358184770B586B00546FFF7E5FD02AC09
:10311000FFF7AAFD0023A97B00944FF400720593EA
:10312000032313F09BFB2046214EFDF7EBFDFFF739
:103130009BFD204A297B02230392002200940492E3
:103140004FF400720596029513F088FB2046FDF7B8
:10315000D9FDFFF789FD184B697B4FF4007203938B
:1031600000230094049302230596029513F076FB46
:103170000CE02046FDF7C6FD2FF0CCFA2046FDF707
:10318000C1FDF9E72046FDF7BDFDF5E72046FDF757
:10319000B9FDFFF769FD4FF40073D5F89C24697BF6
:1031A00013F054FD012085F8980206B070BD00BFF1
:1031B000209509084F3004089130040802232DE9B6
:1031C000F041437100230446054683609046144B4A
:1031D00004F17C0645F8703B284612F001FE3046AB
:1031E00012F0FEFD04F52477384612F0F9FDC4F81C
:1031F000A484FFF739FD2146FFF7EEFC0CE03846CA
:1032000012F046FE304612F043FE284612F040FE11
:103210002FF080FAF6E7F8E72046BDE8F08100BF1E
:10322000FC95090870B504460D46FFF755FD84F876
:103230007850002D3ED194F8843033B1FFF714FD5F
:10324000217B13F0DBFB84F8845004F1850304F147
:103250007C0600253046C4F88832C4F88C5212F03F
:10326000CCFD304612F0C2FD28B94FF4A2721449C9
:10327000144815F0BBFD94F8983233B1FFF7F4FC15
:10328000217B13F0BBFB84F8985204F2992304F5D8
:103290002475C4F89C3400232846C4F8A03412F0E6
:1032A000ACFD284612F0A2FD20B94FF4A7720449E4
:1032B0000548DEE704F17000BDE8704012F09DBDE6
:1032C000D8950908469509085795090810B5044688
:1032D000FFF702FD00212046BDE81040FFF7A2BF26
:1032E00038B50D460446FFF7F7FC042D05D02046FF
:1032F0000021BDE83840FFF795BF38BDF8B5164648
:1033000004460D461F46FFF7E7FC0423EA883370A6
:1033100023799A4225D16978012922D1EA78212A94
:1033200008D0222A0BD0202A4FF000001BD1307089
:10333000163401E00F34317007203C60F8BDAB88D3
:10334000204613F0010308BF1946FFF76BFFAB8857
:1033500003F00103E366AB8803F00203A3660223D4
:1033600033700020EAE703233370E7E710B58AB033
:103370000446FFF7A1FC684612F0EEFB0D4B6946D0
:1033800004F170000093099412F04FFD2046FFF7FE
:103390009BFC094B002168461A6812F029FC68461C
:1033A000FFF790FD0AB010BD6846FFF78BFD2FF0C8
:1033B000B1F900BF109509083495090870B58EB0B1
:1033C00004460E461546FFF777FC01A812F0C4FB31
:1033D000114B01A904F17C00019300230C958DF899
:1033E0003430CDE90A4612F020FD2046FFF76CFC90
:1033F0000A4B002101A81A6812F0FAFB04E001A8A8
:10340000FFF774FD2FF086F99DF8344001A8FFF70F
:103410006DFD20460EB070BDE09409083495090892
:1034200010B50446FFF758FC94F884307BB9D4F803
:103430008C3263B1FFF718FCD4F88C3204F18502AA
:10344000217B13F0A3FC10B1012384F8843010BD5C
:103450002DE9F8431E460446894690469DF82070A3
:10346000FFF72AFC0023336094F87830E3B194F836
:103470008430CBB9D4F88C52C5F50075454528BFCA
:103480004546B8F1000F05D02A464946D4F88802CF
:103490004CF038FFD4F88C322B44C4F88C323560B1
:1034A00017B12046FFF7BCFF2046BDE8F843FFF701
:1034B0000BBCF0B50446406A85B0012690F8785000
:1034C0002DB984F830503546284605B0F0BD04AB20
:1034D0000027D4E90A1243F8047D0096FFF7B8FFED
:1034E0000399E36AA26A5B1A0A44E362A26213B90F
:1034F00084F83060E8E7606A3D46FFF791FFE3E754
:103500002DE9F0431C4691B0054689469046FFF7E9
:10351000D3FB002C4FF0000602A806BF01AC012728
:103520000027266012F018FB134B02A905F5247042
:1035300002938DF83C708DF83D60CDE90B59CDE9D3
:103540000D8412F072FC2846FFF7BEFB0B4B314690
:1035500002A81A6812F04CFB04E002A8FFF7DAFC9C
:103560002FF0D8F89DF83D4002A8FFF7D3FC204685
:1035700011B0BDE8F08300BFF8940908349509083C
:1035800010B5D0F8A034044673B990F898325BB9FE
:10359000FFF76AFB4FF4007304F29922617B13F08A
:1035A00055FB012384F8983210BD70B504461E46C1
:1035B00000230846336094F87830EBB194F89832E1
:1035C000D3B9D4F8A054D4F89C14954228BF15461A
:1035D0002A464CF097FE3560D4F89C34D4F8A024E9
:1035E0002B44551BC4F89C34C4F8A05425B920467C
:1035F000BDE87040FFF7C4BF70BD37B50446406AF0
:1036000090F878502DB984F835500125284603B03C
:1036100030BD02AB002243F8042DD4E90A12FFF7B3
:10362000C4FF0199A26A0A44A262226B13680B4488
:1036300013600199E36A5B1A94F83410E36209B9E4
:10364000126802B91BB9012384F83530DEE7606ADD
:103650000025FFF795FFD9E76FF0150070470029A7
:103660000CBF6FF0180000207047012070476FF00A
:10367000150070476FF015007047112070477047B4
:103680007047704703689B6C1847A0F59860F9E78E
:1036900070477047704770470368184710B5044675
:1036A000012000F0DBFB94F8780010BDA0F59860D5
:1036B000F4E7000038B54FF0FF320123FF210B483B
:1036C00016F027FE0A4D00F0ABFB044695F8783063
:1036D0001BB1012000F0C2FBF8E700F0A1FB001BCA
:1036E000C728F6D9BDE83840FEF78EBDD446002481
:1036F0009C40002407B502AB012243F8041D194683
:10370000FFF75CFE18B1019803B05DF804FB4FF0C1
:10371000FF30F9E7A0F59560FFF7ECBF07B5002390
:1037200002A9012201F8013DFFF7EAFE20B19DF850
:10373000070003B05DF804FB4FF0FF30F9E7A0F598
:103740009560FFF7EBBF2DE9F8430446884617461E
:103750001E46089DFFF7C0FAD4F8F095B9F1000FA6
:1037600004D02B46324639464046C847C4F8E08567
:10377000C4F8E475C4F8E865C4F8EC55BDE8F8830E
:1037800070B506460025FFF7A7FA06F2F454D6F8FE
:103790003436AB4208D92046103454F8043C1BB1EF
:1037A0001B6801359847F2E770BD0000B0F5966FD1
:1037B00003D10121014816F08BBD7047D446002487
:1037C00010B4D0E9013401686210E4075DF8044BDD
:1037D00001EB020044BF8A58D3581847114B03F13C
:1037E000780270B503600446C0F8A82400F2F456CD
:1037F00003F1D80200F23465E833C0F8AC24C0F815
:10380000C034AE4204D0103D2846FDF77BFAF8E7FD
:1038100004F5956014F05CFF2046FFF72DFB204671
:1038200070BD00BF7C960908A0F59560FFF7D6BF74
:10383000A0F2AC40FFF7D2BF10B50446FFF7CEFFB1
:103840004FF4C761204616F025FB204610BDA0F2BC
:10385000AC40FFF7F1BFA0F59560FFF7EDBF0000AA
:10386000F7B51E4604460F46154629F0B3FFBDF8CE
:10387000243001462A4601932046BDF820300093AB
:10388000334604F59566FFF799FC0021304614F0A5
:10389000F5FE4FF47A73002504F59A60C4F8C83435
:1038A0002946204BC4F8C45403F178022360C4F8BD
:1038B000A82403F1D802E833C4F8AC244FF4807292
:1038C000C4F8C0344CF01CFEC4F8D055C4F80056FF
:1038D000C4F8D455C4F81056C4F8D855C4F82056C6
:1038E000C4F83056C4F83456C4F8F055BFB1204679
:1038F000FFF73CFD13E004F2346504F2F457BD42D7
:1039000004D0103D2846FDF7FDF9F8E7304614F0E5
:10391000DFFE2046FFF7B0FA2EF0FCFEF9E7204666
:1039200003B0F0BD7C96090838B50546FFF7C4F929
:1039300095F898325BB9D5F8A044B4F5007F28BF5C
:103940004FF400742846FFF7BFF9204638BD002425
:10395000F8E70000F0B587B00446FFF7ADF93D4B3E
:103960002046C4F8F035FFF7AFF93B4B20460294F0
:1039700005933A4B039300230493FFF79DF9D4F882
:103980003456032D03D92046FFF79EF915E004EBCA
:1039900005166B1C06F2F456C4F834363046FDF7B3
:1039A000B1F9059B04EB0515C5F80036002BEAD0EC
:1039B0005B6802A930469847E5E702A8FDF7A2F93F
:1039C000BC2016F033FA264B002100F140060546D4
:1039D00003600161304616F03DFD05F1540738469D
:1039E00016F0D8FC1F4B4FF4807218212846009324
:1039F000002316F013FE1C4B02A9C4F8DC55284620
:103A000005931A4B02930023CDE9033316F012FEFF
:103A100010E0384616F0FCFC304616F060FD281D1C
:103A2000FDF770F9BC21284616F034FA2EF072FE2C
:103A3000F2E7F4E702A8FDF765F92046FEF7D6FDA8
:103A400007B0F0BD02A8FDF75DF9EFE702A8FDF7AA
:103A500059F9EBE7AD37040854960908ED25040839
:103A60004CBF09086C96090860960908B536040829
:103A7000A0F59860FFF76EBF90F8780070470000DF
:103A800037B50F4C0F4D204616F012FC2A460E4952
:103A9000204615F073FF42F2120301220B4CCDE9D0
:103AA000003200224FF4F85320461146FFF7D8FEAB
:103AB0002A460749204603B0BDE8304015F05EBFF6
:103AC000D446002400000024DDA205089C40002408
:103AD000DD37040808B54AF069FD2DE9F04F027D95
:103AE00085B005460E46012A40F08E8000214FF039
:103AF000FF3B04460B465F4694F804C048B2BCF155
:103B0000000F73D194F805C0BCF1000F6ED1B7F16E
:103B1000FF3F17BF0133012338465BB2934201DDFB
:103B20001A4683460131023408295DD1002402EB94
:103B30000B03A1460293CB4502DC029B4B4558DCAC
:103B400095F8058095F804A04FEA281708F00F08AB
:103B50000AF00F035FEA2A1AFAB201926FD05FFAF5
:103B60008AF1BAF1090F30460393D4BF303157318F
:103B700000F0C9F8039B0444092B3046039394BF1B
:103B800003F1300103F1570100F0BDF80444BAF12C
:103B9000000F02D1039B03B94FB1092F019F30469B
:103BA000D4BF30375737F9B200F0ADF80444B8F15C
:103BB000090F304694BF08F1300108F1570100F0B9
:103BC000A2F8B9F1070F044404D03A21304600F0BE
:103BD0009AF8044409F101090235B9F1080FAAD194
:103BE000204605B0BDE8F08F074685E74FF0FF306F
:103BF00098E7CB45EED1BBF1000FE6D13A21304634
:103C000000F081F80444E0E700F1100700F1130927
:103C1000002417F8011B0A22304600F0A1F8804664
:103C20002E21304600F06FF8B94540440444F0D1ED
:103C30000A22E97C304600F093F80444D0E7002BD8
:103C40009AD1A9E7054B102210B50446036001750F
:103C5000002104304CF054FC204610BD9897090810
:103C600070B5074D8374056000259DF8103005750B
:103C700045608560C56001744274C37470BD00BF47
:103C80009897090807B501210648FFF7DBFF0023D5
:103C900005481A4619460093FFF7E2FF03B05DF8A6
:103CA00004FB00BFE8460024004700242DE9F04152
:103CB00006460D4601EB02080C464445A4EB0507F9
:103CC00007D03368304614F8011B1B68984700285A
:103CD000F3D13846BDE8F08170B5044608460D467C
:103CE0004DF0AEF923680246294620465B68BDE8E0
:103CF0007040184709B1FFF7EFBF0846704708B595
:103D0000FFF7F8FF08BD03681B68184770B58AB055
:103D10000D460023012A98BF0A220AA901F8043D92
:103D2000B5FBF2F402FB14562546F3B2092E94BFFC
:103D300030333733DBB201F8013D002CF0D1FFF70F
:103D4000D9FF0AB070BD10B42AB90368C9B25DF8D2
:103D5000044B1B681847D2B25DF8044BFFF7D6BF7F
:103D6000FFF7F1BF704713B5002000900DF056FE2D
:103D7000044610B1009802B010BD01AB04226946A0
:103D80000DF02AFE20460DF04BFEF3E710B500F0D3
:103D900069F80A4CFEF7D8F9FEF766FFFEF75BFFFD
:103DA0004FF4E1310648FFF7D5FDFCF73DFBFCF78A
:103DB00017FB002CFBD0AFF30080F8E700000000F9
:103DC0009C40002470B505460024074EFEF729F9F3
:103DD000E3B2984206D918461B010134F35EAB42A8
:103DE000F4D170BDFF20FCE70C00002410B50446A0
:103DF000FEF717F984423BBF2401024B4FF0FF301E
:103E0000185F10BD0C00002410B5044611F009FD28
:103E1000204610BD10B5044611F003FD204610BD2C
:103E200007B50749684611F039FD4FF47A7200234F
:103E3000DDE900012FF0CEF803B05DF804FB00BF10
:103E40001847002407B50449684611F027FD00987B
:103E500003B05DF804FB00BF3047002416F046BBFA
:103E600016F002BA08B5044811F0E5FC0348BDE8B5
:103E7000084011F0E0BC00BF304700241847002480
:103E800016F070BB38B50A4C0A4D204611F043FDC0
:103E90002046094C2A46094915F070FD204611F0CC
:103EA00045FD2A4620460649BDE8384015F066BD66
:103EB000304700240000002418470024153E040861
:103EC000093E040870B504460D46164600211C2222
:103ED0004CF016FB20463246294613F02AFD2046B8
:103EE00070BD00002DE9F04107011F4D04460E464C
:103EF000EA19D06810B11C2115F0CCFF2046FFF75D
:103F000075FF80461C2015F091FF044600211C22FD
:103F10004CF0F6FA4146204613F008FDEB19012E4D
:103F2000DC6010D006D3022E12D0204610F0B3FB76
:103F3000022103E0204610F0AEFB00212046BDE840
:103F4000F04110F0B4BB2046BDE8F04110F097BB43
:103F5000204610F0A0FB0121F0E71C21204615F0BF
:103F600099FF2EF0D7FB00BF0C00002430B589B0BC
:103F700004460D46FFF726FFC0B2FF2804D02946AD
:103F8000FFF7B0FF09B030BD012D14D00AD3022DC8
:103F90001CD00222214601A8FFF794FF01A813F0CC
:103FA0004FFCEFE70022214601A8FFF78BFF01A895
:103FB00013F046FCE6E71C22002101A84CF0A0FA11
:103FC0000022214601A813F0B6FCDBE701222146BE
:103FD00001A8FFF777FF01A813F032FCD2E7000039
:103FE0002DE9F34106460F46FEF71BF886422AD21A
:103FF0001B4D4FEA061805EB0802D468ACB93046F1
:10400000FFF7F4FE06461C2015F010FF04461C22A4
:1040100000214CF075FA009700230122314620461A
:1040200013F090FC05EB0803DC600E4B0E491A46BA
:10403000D3F894008842FBD123683FB1A1680B609C
:104040004FF44073536102B0BDE8F081E1681B0496
:10405000F5E71C21204615F01DFF2EF05BFB00BF8D
:104060000C000024006402580003008030B589B0C1
:1040700005460C46FFF7A6FEC0B2FF2804D0214635
:10408000FFF7AEFF09B030BD1C22002101A84CF0A3
:1040900037FA294601A813F052FC094B09491A4680
:1040A000D3F894008842FBD1019B2CB103990B609B
:1040B0004FF440735361E5E71B040499F7E700BF31
:1040C00000640258000300801EF0040F0CBFEFF3E1
:1040D0000880EFF30980816911F8021C002932D1B0
:1040E00001B590E80F10E047BDE800508CE80300F0
:1040F000244B93E80600914208BF70471A6041B90B
:104100001EF0100F10D1204B186820F0010018602D
:104110000AE02CE9F00F1EF0100F08BF2CED108AFA
:1041200081F822E0C1F838C0906B92F8221061F05B
:10413000FF0E1EF0100F08BFB0EC108AB0E8F00FB1
:1041400080F309887047114A13689942FAD801B57B
:1041500052F821C00FC8E047BDE80050CCF800007D
:10416000704701B501F0D4FBBDE80140EFF3098CC5
:10417000BEE701B501F090FBBDE80140EFF3098C0B
:10418000B6E70000400C002434EF00E05098090826
:10419000014608B530B96FF0030000F020FA6FF067
:1041A000030008BD132001F0CFFF30B94FF0FF30FE
:1041B00000F015FA4FF0FF30F3E70020F1E70000C0
:1041C00008B5EFF305834BB9EFF3108333B9EFF381
:1041D00011831BB9DFF814C000DF08BD6FF00500C4
:1041E00000F0FDF96FF00500F7E700BF914104080A
:1041F000EFF310832BB9EFF31180003818BF0120C3
:1042000070470120704710B520B10378F32B01D11E
:10421000002906DA6FF0030102F0B4FA6FF0030030
:1042200010BD00F10C0353E8000F20EA010243E83F
:10423000002404B1F7E7F3E7034610B528B3046898
:10424000806860B110F0030202D1DB680F2B25D823
:104250006FF00801002002F095FA002014E0DB68FE
:10426000002BF5D1104BD3F8900080B100F08AFC00
:10427000B0B10123F32283700023446002700B4A23
:10428000C0E90233084B5A6610BD0446EAE7012232
:104290001021D3F8800000F000FCE9E71346E9E7BD
:1042A0006FF00401D7E700BF2C0C00248143040801
:1042B00010B5044610B10378F32B07D020466FF0F9
:1042C000030102F05FFA6FF0030010BD836863B171
:1042D000204601F079FC00226FF0020101F04DFE52
:1042E000A0680028F4D101F0F7FC00232370A37824
:1042F000DB0701D40020E8E7064B2146D3F8900005
:1043000010B100F05CFCF5E7D3F8800000F0F9FB99
:10431000F0E700BF2C0C0024930710B502F0010455
:1043200022D400F10C0384B153E8000F00EA01022B
:104330008A4203D0BFF32F8F002005E020EA01025C
:1043400043E8002404B1EFE710BD53E8000F084232
:1043500003D1BFF32F8F002005E020EA010243E8DC
:10436000002404B1F1E7EFE7C06801EA00031CB1E3
:10437000994218BF0020E7E7002B08BF0020E3E7C1
:10438000F8B50546846804B9F8BD94F8232028469A
:10439000616AA768FFF7C0FF064638B1204601F002
:1043A0001CFC00223146204601F0E7FD3C46EAE7CE
:1043B000F8B50D4617461E46044620B10378F32B88
:1043C00001D1002907DA20466FF0030102F0DAF983
:1043D0006FF00300F8BDFFF79FFF0028FAD186B108
:1043E0003146432001F0B0FE40B1074B20465E69E4
:1043F000314601F0D7FB756286F823706FF001003B
:10440000E8E76FF00200E5E72C0C00242DE9F0410D
:10441000064620B10378F32B01D1002909DA6FF0A9
:1044200003056FF00301304602F0ACF92846BDE801
:10443000F08100F10C0353E8002F42EA010543E844
:10444000005000B1F7E7B4681CB9204601F044FC05
:10445000ECE794F823203046616AD4F80880FFF72F
:104460005BFF074678B194F823309B0756BF656A17
:10447000054620EA0505204601F0AFFB002239463B
:10448000204601F07AFD4446DEE70000024608B50A
:10449000EFF3058333B100206FF0050102F072F9EC
:1044A000002008BDFFF7A4FE0028F4D11046DFF875
:1044B00008C000DFF5E700BF3942040838B50246FE
:1044C0000D46EFF305834BB192B96FF003046FF023
:1044D0000301104602F056F9204638BDFFF788FE6A
:1044E0000028F1D11046DFF830C000DF0446F3E7C2
:1044F0001378F32BE9D1002DE7DB02F10C0353E82D
:10450000001F41EA050443E8004000B1F7E7104608
:1045100001F046FAE0E700BF0D44040810B502467A
:104520000C46EFF305832BB121461046BDE8104041
:10453000FFF769BEFFF75CFE0028F5D11046DFF8F3
:1045400008C000DF10BD00BF07420408F8B50446EC
:104550000E4617461D46EFF3058343B18CB920463E
:104560006FF0030102F00EF96FF00300F8BDFFF7E2
:104570003FFE0028F2D120462B46DFF828C000DF9E
:10458000F4E72378F32BEAD1002DE8D1002EE6DB07
:104590003A4631462046FFF7BFFE002808BF6FF0BD
:1045A0000200E3E7B1430408024608B5EFF30583D0
:1045B0003BB110466FF0050102F0E4F86FF0050022
:1045C00008BDFFF715FE0028F3D11046DFF804C040
:1045D00000DFF5E7B1420408704770477047704745
:1045E000EFF310832BB9EFF31180003818BF0120CF
:1045F0007047012070470000064BDA6A3AB1D06973
:104600005B6C1BB11B69984228BF184670474FF07E
:10461000FF30F5E72C0C0024014BD868704700BF31
:104620002C0C002408B5094B1A7A022A08D0032A58
:104630000AD04FF0FF3002F099F84FF0FF3002E05F
:10464000032200201A7208BD0120FCE72C0C002474
:1046500008B50A4B1A7A023A012A02D840B1012859
:1046600009D04FF0FF3002F081F84FF0FF3001E049
:1046700002221A7208BD0322FBE700BF2C0C0024A3
:1046800070B5464C237A012B00F0858033B14FF092
:10469000FF3002F06BF84FF0FF3070BD404DEB681B
:1046A000E3652B8AD5E90B61A4F85430AB6830463A
:1046B000236400F0DBF908B1C4F88060D5E9056136
:1046C000304600F0D3F908B9D4F880606667D5E9C0
:1046D0000761304600F0CAF908B9D4F88060A667CF
:1046E000D5E90961304600F0C1F908B9D4F8806015
:1046F000E6676E6B3EB131683046D6E9022300F0C2
:1047000020FAC4F88460AE6B3EB131683046D6E919
:10471000022300F016FAC4F88860EE6B3EB13168EF
:104720003046D6E9022300F00CFAC4F88C602E6CF7
:104730003EB131683046D6E9022300F002FAC4F8EF
:1047400090606E6C3EB131683046D6E9022300F0CD
:10475000F8F9C4F89460AE6C3EB131683046D6E9E1
:10476000022300F0EEF9C4F89860EE6C3EB13168B7
:104770003046D6E9022300F0E4F9C4F89C602D6DC0
:104780003DB129682846D5E9022300F0DAF9C4F8DA
:10479000A0500123237200207FE700BF2C0C0024CF
:1047A000E097090870B5274C237A012B07D06FF0EA
:1047B00006004FF0FF3501F0D9FF284670BD01F02B
:1047C00035FD10B94FF0FF30F3E71F4AFF2382F8A1
:1047D000223092F8223063F0FF03DB4304D1D26829
:1047E000C2F30222531C08E0B3FA83F3D268C3F188
:1047F0002003C2F302229342F4D9FE22134E14493D
:1048000002FA03F3104A7068DBB2D37702F00AF8B9
:1048100005460028D6D102F05DF8206102F046F886
:104820000C4801F0D1F901F04FFA3368DB074CBFB7
:104830000223032383F31488BFF36F8F02232372B1
:10484000BBE700BF2C0C002400ED00E0E097090856
:1048500073410408480C002410B50F4C237A022B36
:1048600013D102F02BF801236372BFF34F8F0B4A71
:104870005168C90003D54FF000615160A372042351
:104880002372BDE81040FFF7B7BE6FF0070001F0DC
:104890006DFF002010BD00BF2C0C002400ED00E0D7
:1048A00038B51D4C0546237A042B34D1FFF7A4FEFE
:1048B000E26A85422CBF00F1FF332B4612B1D0696A
:1048C000C01AD061626C12B11069C01A1061E2683E
:1048D00013441544E360E3689D4213D10223002092
:1048E000237201F0F9F900236372BFF34F8FA27AAC
:1048F00022B1A3724FF08052084B5A60BDE8384095
:1049000001F0D4BF0133E36001F0A4F9236D002B63
:10491000E1D09847DFE738BD2C0C002400ED00E023
:10492000704738B504460D46FFF756FE2946204627
:10493000BDE8384001F0DCBE08B5FFF7F1FFEFF34A
:10494000058333B16FF0050001F010FF6FF0050033
:1049500008BDFFF745FE0028F4D1DFF808C000DFEE
:10496000F6E700BF8146040808B5EFF3058333B1CD
:104970006FF0050001F0FAFE6FF0050008BDFFF7CB
:104980002FFE0028F4D1DFF808C000DFF6E700BFF3
:10499000A547040808B5EFF3058333B16FF00500B0
:1049A00001F0E4FE6FF0050008BDFFF719FE0028D6
:1049B000F4D1DFF808C000DFF6E700BF25460408A1
:1049C000024608B5EFF3058333B16FF0050001F03F
:1049D000CDFE6FF0050008BDFFF702FE0028F4D100
:1049E0001046DFF808C000DFF5E700BF51460408B5
:1049F00008B5EFF305832BB16FF0050001F0B6FEAB
:104A0000002008BDFFF7ECFD0028F5D1DFF804C059
:104A100000DFF6E759480408024608B5EFF30583BE
:104A20002BB16FF00500BDE8084001F09FBEFFF715
:104A3000D7FD0028F5D11046DFF804C000DF08BD1F
:104A4000A148040808B5EFF3058313B1054BD868F6
:104A500008BDFFF7C5FD0028F8D1DFF80CC000DF66
:104A6000F6E700BF2C0C002419460408034610B5D5
:104A700088B1084310F007000DD117290AD9196031
:104A800008391022CC185A609C60585099684A60C6
:104A9000D860012010BD0020FCE7034670B570B35C
:104AA00069B3032A2BD80F3100F1080421F007065F
:104AB000214624684D68601A25F00305401B864294
:104AC00003D920680028F3D170BD5D6832431868AF
:104AD00035445D60034453F8040C083B854288BFAD
:104AE0005D604B681BB901F108004A60ECE723F0F8
:104AF0000303C818CC50426008600830E4E7002087
:104B0000E2E7034610B580B1C9B1A1F1080400F194
:104B100008020021A24209D1506820F0030458681D
:104B2000001B586041B95160012010BD106811464A
:104B30000028FAD00246EDE713680B60F4E7084658
:104B4000F3E730B5C0B189B1C2B1CBB10024016087
:104B5000C3604361C0E9014202FB01F41D19056114
:104B60001846013904D1A41A19510121084630BD53
:104B7000851805602846F4E70146F7E71146F5E792
:104B80001946F3E7034610B508B9002010BD00F13F
:104B9000140252E8000F10B9BFF32F8F04E0016830
:104BA00042E8001404B1F4E70028EED0043353E8DF
:104BB000002F511C43E8001404B1F8E7E6E730B5D4
:104BC000F0B1C3688B421BD803698B4218D900F13E
:104BD00014031A680A60BFF35F8F53E8002F0C6854
:104BE0009442F6D143E8001505B1F2E7043050E8ED
:104BF000003F5A1E40E8002101B1F8E7002030BD17
:104C00006FF00300FBE7EFF310832BB9EFF3118094
:104C1000003818BF0120704701207047D1E90132E8
:104C200023B19A608A681AB153607047C262F9E78B
:104C3000036370472DE9F84F8946074638B131B113
:104C4000B0FA80F1B9FA89F30B441F2B08DC6FF03E
:104C500003010024002001F0ABFD2046BDE8F88FE1
:104C600009F1030828F0030808F10C0808FB00FB11
:104C7000002A5AD09468D2F800A0D2E904653CB169
:104C8000A10702D1D368332B0DD86FF00801E0E7FC
:104C9000D368002BF9D126B3B20701D1AB4522D995
:104CA0006FF00901D5E7B6B9002DF9D12A4B0022E2
:104CB0005946D86FFFF7F1FE0646002844D13DB1B2
:104CC000254B2146D3F8A000002838D0FFF777FF06
:104CD0006FF00401BDE7B307E2D1AB45E0D8002592
:104CE0000DE0002DDCD11C4BD3F8A00000B3FFF782
:104CF00049FF04460028EBD00125002ED6D0FA2328
:104D00004246394604F10C0023700023A570A360CD
:104D1000C4F804A0C4E90993C4E90B333346FFF790
:104D200010FF0D4B0D4A1A6797E792461646DAE7D1
:104D300001223421D3F88000FFF7AFFED9E7D3F882
:104D40008000FFF7DEFEC3E75A46002145F002056A
:104D50004BF0D6FBD3E700BF2C0C0024ED4D04082C
:104D600000F1280310B553E8002F12B9BFF32F8FBD
:104D700004E0511E43E8001404B1F4E70AB900202E
:104D800010BDC06A01220028F9D0811CD1E84F3F34
:104D9000C1E8442F04B1F9E7DBB2002BF0D0806802
:104DA000F1E7036B30B5E3B1CD780024DA78AA429D
:104DB0000FD31A46C1E901248AB19160A4B16160A0
:104DC000283050E8003F5A1C40E8002101B1F8E7C4
:104DD00030BD5A681C46002AECD01346E6E7C16293
:104DE000ECE7C1E90133C1620163E9E7F8B587780F
:104DF00004468FB3C568002701462846FFF70EFF1B
:104E0000277005F10C042046FFF7D9FEAB68002B94
:104E100048D02046FFF7B6FE0446002842D0284678
:104E200000F0D2FE06463A46394601F0A6F8304672
:104E300000F040FF6A6A0646816804F10C004BF0FE
:104E400061FAF923A7702370F368E37021462846BE
:104E5000BDE8F840FFF7A5BF8568AB68002BF5D02B
:104E60005B78832BF2D1284600F0AEFE06463A4628
:104E7000394601F082F8304600F01CFF06466A6AA7
:104E800004F10C0180684BF03DFAF3680BB1E27855
:104E90001A700023214605F10C002370BDE8F8408C
:104EA000FFF78DBEF8BD00002DE9F0410E46174614
:104EB0009846044618B10378FA2B00D141B9204630
:104EC0006FF0030101F074FC6FF00300BDE8F081A6
:104ED0008368BBB15B78832B14D100F075FE054667
:104EE0000122002101F049F8284600F0E3FE0546C2
:104EF000626A314680684BF005FAEB6803B11F70B7
:104F00000020E3E704F10C00FFF73CFE054670B11A
:104F10003146626A0C304BF0F5F9F92329462046F8
:104F20002B700023EF70AB70FFF73BFFE8E7B8F1A1
:104F3000000F11D04146932001F006F910B96FF02F
:104F40000100C3E7064B2046596900F02BFEEFF342
:104F50000983C3E90267F2E76FF00200B6E700BF1A
:104F60002C0C00242DE9F0410F46164698460446C5
:104F700018B10378FA2B00D141B920466FF0030134
:104F800001F016FC6FF00300BDE8F081FFF7E8FECA
:104F9000054600283AD001462046FFF73FFE626AE8
:104FA00005F10C0138464BF0ADF90EB1EB783370DA
:104FB000002704F10C06294630462F70FFF7FFFD4D
:104FC000A3680BB90020DFE73046FFF7DBFD05469D
:104FD0000028F7D0204600F0F7FD064639460122AA
:104FE00000F0CBFF304600F065FE626A064681683D
:104FF00005F10C004BF086F9F923AF7029462B70B0
:105000002046F368EB70FFF7CCFEDBE7B8F1000F4A
:1050100011D04146832001F097F810B96FF00100DC
:10502000B2E7064B2046596900F0BCFDEFF3098357
:10503000C3E90276F2E76FF00200A5E72C0C00242A
:1050400008B5064B08219A6ED86EFFF7F3FD044BA6
:10505000D864B0FA80F04009404208BDE0970908E2
:105060002C0C00242DE9F04106460F4690461C46C4
:10507000EFF305834BB196B930466FF0030101F0B1
:1050800097FB6FF00300BDE8F081FFF7BCFD00283F
:10509000F1D130462346DFF848C000DFF3E733782C
:1050A000FA2BE9D1002FE7D0002CE5D106F10C0056
:1050B000FFF768FD054680B1726A39460C304BF047
:1050C00021F9F9232846AC702B7085F80380C5E9D7
:1050D000017600F065FC2046D5E76FF00200D2E7CC
:1050E000A94E0408F8B504460F4616461D46EFF3D0
:1050F000058343B18CB920466FF0030101F058FBE2
:105100006FF00300F8BDFFF77EFD0028F2D12046C6
:105110002B46DFF844C000DFF4E72378FA2BEAD10E
:10512000002FE8D0002DE6D12046FFF719FE0546F6
:1051300070B100F10C01626A38464BF0E3F80EB131
:10514000EB7833702846EC6000F02AFC0020D9E7A9
:105150006FF00200D6E700BF654F0408EFF310833D
:105160002BB9EFF31180003818BF012070470120E0
:105170007047000038B5044640B3D0E90025806888
:1051800060B110F0030302D1E1681B2927D86FF04A
:105190000801002001F0FCFA002016E0E368002B73
:1051A000F5D11446104BD3F8940088B1FFF7EAFC10
:1051B000B8B10123F52283700023C57002704460EA
:1051C0000376C0E90233C0E9043338BD0546E9E798
:1051D00001221C21D3F88000FFF75FFCE8E71446AA
:1051E000E8E76FF00401D5E72C0C0024294B70B5DB
:1051F0005D6904460E4635B96FF0070101F0C8FA43
:105200004FF0FF3070BD10B10378F52B07D020466A
:105210006FF0030101F0BCFA6FF00300F2E7037EC8
:1052200053B9C0E90353EB6A436103B11861012329
:10523000EC6200202376E5E7C278D1070ED5C1687D
:10524000A9420BD1FF2B06D16FF00F0101F0A0FA9C
:105250006FF00200D6E70133DBB2EAE7002EF7D0A9
:1052600093070AD5E06895F9203090F920209A42FA
:1052700003DA80F8203000F0B9FC3146532000F00A
:1052800063FF10B96FF00100BCE72946204600F02B
:1052900089FCF7E72C0C00242F4B5A6970B50446A3
:1052A00032B96FF0070101F073FA4FF0FF3070BDB3
:1052B00010B10378F52B07D020466FF0030101F001
:1052C00067FA6FF00300F2E7037E33B96FF00E0167
:1052D00001F05EFA6FF00200E9E7C168914202D086
:1052E0006FF00D01F4E7013BDBB203760BB1002058
:1052F000DDE743690BB1016919612169E9B14B61CE
:1053000092F92130D56AD5B982F82030A36883B1EB
:10531000204600F059FC06462A46294600F02DFE9C
:10532000F36AC4E90365636103B11C610123F4629C
:105330002376002000F0D0FCD9E7D362E0E7E978DB
:10534000890706D5A96821B191F920108B42B8BF11
:105350000B466D69D7E700BF2C0C002410B504463E
:1053600010B10378F52B07D020466FF0030101F050
:105370000FFA6FF0030010BD037EBBB16369C06814
:105380000BB122691A612269BAB1536190F92120E7
:10539000C36AA3B990F92030934203D080F820204B
:1053A00000F024FCA068B0B900F096FC0023237044
:1053B000A378DB0718D40020DDE7C362E6E7D978DD
:1053C000890706D5996821B191F920108A42B8BFA2
:1053D0000A465B69DDE7204600F0F6FB00226FF02D
:1053E000020100F0CAFDDDE7064B2146D3F8940028
:1053F00010B1FFF7E4FBDEE7D3F88000FFF781FB95
:10540000D9E700BF2C0C00242DE9F041044600260A
:1054100001270CB9BDE8F081E378D4F814801B07AC
:1054200012D5A36826767BB1204600F0CDFB002282
:105430000546114600F0A1FDEB6AC4E9035663611D
:1054400003B11C61EC6227764446E2E710B4C378EE
:105450009B071DD5C06890F92120C36ADC78A4079A
:1054600009D59C688C4208BF8C6824B194F920400F
:10547000A242B8BF22465B69002BEFD190F92030E1
:10548000934205D080F820205DF8044B00F0AEBBBD
:105490005DF8044B70470000024608B5EFF3058342
:1054A00033B100206FF0050101F072F9002008BD52
:1054B000FFF754FE0028F4D11046DFF808C000DFE3
:1054C000F5E700BF75510408024608B5EFF3058300
:1054D0003BB110466FF0050101F05AF96FF005007D
:1054E00008BDFFF73BFE0028F3D11046DFF804C0EB
:1054F00000DFF5E7ED510408024608B5EFF3058338
:105500003BB110466FF0050101F042F96FF0050064
:1055100008BDFFF723FE0028F3D11046DFF804C0D2
:1055200000DFF5E799520408024608B5EFF305835A
:105530003BB110466FF0050101F02AF96FF005004C
:1055400008BDFFF70BFE0028F3D11046DFF804C0BA
:1055500000DFF5E75D530408EFF310832BB9EFF399
:105560001180003818BF01207047012070470C30AF
:10557000D0E85F3F13B9BFF32F8F04E05A1EC0E895
:10558000512F01B1F4E798B2003818BF01207047DD
:1055900030B500F10C02C189D2E85F3F994202D8D0
:1055A000BFF32F8F04E05C1CC2E8554F05B1F3E751
:1055B000C0899BB2984294BF0020012030BD0000FA
:1055C00070B54FF6FE730D46411E0446994201D850
:1055D000A84206D26FF00301002001F0DFF800209E
:1055E00070BD12B39068166840B110F0030302D189
:1055F000D2680F2A0DD86FF00801EDE7D368002BB1
:10560000F9D1104BD3F8980088B1FFF7BBFAA8B1D5
:105610000123F622837000234660027083600A4AE9
:10562000084B8581C4819A66DAE71646E9E70122CC
:105630001021D3F88000FFF730FAE8E76FF004019B
:10564000CBE700BF2C0C0024FD56040810B504461F
:1056500010B10378F62B07D020466FF0030101F05C
:105660009DF86FF0030010BD83683BB100F0ACFA09
:105670000122002100F081FC0020F4E7FFF788FF01
:105680000028F9D120466FF0100101F087F86FF083
:105690000200E8E710B5044610B10378F62B07D0F6
:1056A00020466FF0030101F079F86FF0030010BDA0
:1056B000836863B1204600F087FA00226FF0020190
:1056C00000F05BFCA0680028F4D100F005FB00238B
:1056D0002370A378DB0701D40020E8E7064B2146BE
:1056E000D3F8980010B1FFF76AFAF5E7D3F8800015
:1056F000FFF707FAF0E700BF2C0C0024836810B511
:1057000004465BB1FFF733FF40B1204600F05CFA7E
:105710000022BDE81040114600F02FBC10BD000073
:1057200038B50D46044610B10378F62B07D0204655
:105730006FF0030101F032F86FF0030038BDFFF79E
:1057400016FF68B975B12946632000F0FDFC20B151
:10575000064B2046596900F025FA6FF00100EDE78D
:105760000020EBE76FF00200E8E700BF2C0C0024FC
:1057700010B50446EFF3058333B100206FF0050147
:1057800001F00CF8002010BDFFF7E6FE0028F4D170
:105790002046DFF808C000DFF5E700BFC155040868
:1057A00010B502460C46EFF3058343B182B91046AB
:1057B0006FF0030100F0F2FF6FF0030010BDFFF780
:1057C000CBFE0028F2D11046DFF820C000DFF5E75D
:1057D0001378F62BEBD1002CE9D11046FFF7C7FE6A
:1057E00000280CBF6FF002000020E7E721570408F3
:1057F00010B50446EFF3058343B184B920466FF03A
:10580000030100F0CBFF6FF0030010BDFFF7A4FE13
:105810000028F2D12046DFF830C000DFF5E723781A
:10582000F62BEBD12046FFF7B3FE20B1204600F067
:10583000B7F80020E9E720466FF0100100F0AEFF56
:105840006FF00200E1E700BF4D560408024608B5BC
:10585000EFF305833BB110466FF0050100F09EFFAA
:105860006FF0050008BDFFF777FE0028F3D1104662
:10587000DFF804C000DFF5E79556040810B5D0E85E
:105880005F3F5A1C914200D80022C0E8542F04B157
:10589000F5E798B210BD000038B51C4C01F014F8C3
:1058A000E3680133E36000F0D5F9002000F014FA5A
:1058B000236D03B19847226C32B3A369E06BD969B9
:1058C000984202D0E36301B9DA61DA69C2B9237A96
:1058D000022B19D1656ABDB1E36B95F9202093F9CC
:1058E00020309A4210D1284600F077F9E06B00F0A2
:1058F0008FF9284600F0E8F9236CE563EB6103E0DB
:10590000013ADA61002AE2D038BD00BF2C0C002435
:1059100070B5224C04F1560504F15A06B4F854103F
:10592000D5E85F3F13B9BFF32F8F04E05A1EC5E8D7
:10593000502F00B1F4E79BB25BB33046FFF79EFFF8
:10594000E36D53F8200020B30378F13B082BE5D832
:1059500001A252F823F000BF7D5904081D59040824
:10596000835904081D5904081D590408875904085F
:105970008B5904081D5904088F590408236E984751
:10598000CCE7636EFBE7A36EF9E7E36EF7E7236FFF
:10599000F5E70020BDE8704000F09EB92C0C002413
:1059A00070B5164C0546B4F8541004F15602D2E80E
:1059B0005F3F994202D8BFF32F8F04E0581CC2E822
:1059C000560F06B1F3E79BB2994205D8294602204B
:1059D000BDE87040FEF7A5BF04F15800FFF74EFF89
:1059E000E36D43F82050637A23B9054B4FF08052A2
:1059F0005A6070BD0123A372FBE700BF2C0C00248A
:105A000000ED00E0EFF310832BB9EFF311800038C5
:105A100018BF01207047012070470378F12B00D098
:105A20007047C068F9E7000010B5C469621CD0E98E
:105A300004310CD103B1596142691AB113610023D9
:105A4000436101E0074A13630023C36110BD1BB12A
:105A5000DA6959612244DA614269002AEED1014AC9
:105A6000D362F1E72C0C002401230A4A90F920109C
:105A700043701C32936810B51BB193F920408C42DF
:105A800005DCC0E90232906003B1D86010BD1A464F
:105A90009B68F1E72C0C0024014B5869704700BF4C
:105AA0002C0C0024002310B50380044683789A0749
:105AB00008D513F0100F016B0E4B0FD0D3F88400F4
:105AC000FFF77DF8A378DB0712D50A4B2146D3F800
:105AD000880038B1BDE81040FFF771B8586FFFF784
